:100000000C941D040C943A040C943A040C94C631DC
:100010000C943A040C943A040C943A040C943A0468
:100020000C943A040C943A040C948D0F0C94F21531
:100030000C94A0270C943A040C943A040C943A04BF
:100040000C943A040C943A040C943A040C943A0438
:100050000C943A040C9466100C943A040C943A04F0
:100060000C943A040C943A040C943A040C943A0418
:100070000C943A040C943A040C943A040C943A0408
:100080000C943A040C943A040C943A040C943A04F8
:100090000C943A040C943A040C943A040C943A04E8
:1000A0000C943A040C943A040C943A040501098027
:1000B000A101850319012AB700150126B700950192
:1000C00075108100C0050C0901A101850419012AE0
:1000D000A002150126A002950175108100C00660DE
:1000E000FF0961A1010962150026FF00952075082E
:1000F00081020963150026FF00952075089102C052
:1001000005010906A101050719E029E715002501E8
:10011000950875018102950175088101050719008F
:1001200029FF150026FF00950675088100050819AE
:1001300001290515002501950575019102950175A7
:10014000039101C000DA0281FFD9F1DB20A4A62EC1
:10015000AF00A0C0D30000A1C8D30000AED580A8D6
:100160001F408D14200000000000F0F84CC6821AD9
:10017000121A02060C3860C0800000000000000067
:10018000000000000000000000000000000000006F
:10019000000000000000000000000000000000005F
:1001A0000000000000000000000000FCFCC0E0B007
:1001B0001C0C000000FCFC4444444C4C0000C0F00B
:1001C0003C0C0C3CF0C000000000000000000000EF
:1001D000000000000000000000000000000000001F
:1001E000000000000000000000000101000003FE0C
:1001F000C0404040202000F8010302060C18306087
:10020000C0800000000000000000000000000000AE
:10021000004040404040404040404040404040401E
:1002200040404040404040404040404F4F404143AC
:10023000474E4C40404F4F4848484C4C40404F4F31
:10024000414141414F4F404040404040404040408C
:10025000404040404040404040404040404040409E
:1002600040404000000000000000000000000000CE
:1002700003061C3868C88C0603068CD890302060B2
:10028000C08183060C183060C00000000000000030
:100290000032F2820282E2E2E2820282F27202C260
:1002A000E23212121212E2C20202E2F2121212122E
:1002B000F2E20202F2F20282C27232020202E2F2BE
:1002C00012121212326202F2F202020202F2F2027E
:1002D00002C2E23212121232E2C20202E2321212FE
:1002E0001232E200000000000000000000000000E8
:1002F00000000000606061273C26636061273C26A7
:10030000230001010302060C090B0E00000000008F
:100310000000071F381F0700071F381F0700000FC6
:100320001F30202020301F0F00003F3F0303030F2A
:100330003F3000003F3F03070E1C383000001831EB
:10034000212323223E1C003F3F010101013F3F00CA
:10035000000F1F30202020301F0F00003F3F0606F7
:10036000020301000000FD377A585A000004E6D667
:10037000B4460200210116000000742FE5A3E0033B
:10038000E0010E5D003D8889C65436C3174FE4DC9A
:10039000CBB3DF6320E7D716D25E50C2AB94E9ED52
:1003A000BB0ECCD6C0A85366748B462C954A884C9D
:1003B0005FD1552041A24FC5FF914CDFAF2C6CA4FB
:1003C00079BBBAE172063D22BC6664889A7C0A77E2
:1003D000A291444DCE23A78AF10FD083282E07CCBB
:1003E000992070152E7D90F435A0EA437ACD18DA65
:1003F00003F960739BF2CF66FC116C27D1D1CAABB5
:10040000E5A33788838CA00DB6670720A9ADB80592
:100410002419B79EF15A5296848B5F8F31D85DC0F4
:1004200088CB09F4122E41CAFB49B616C60F101527
:100430002BED562539DF2318A79FD92E9E53AF6287
:10044000DF039637FF12321912154FD60B27B179F9
:1004500080D93BBEA91B0A2CA846E45B114BDB09E3
:10046000D69D50FF35DD5E9F149F09B9850A48224D
:10047000BD1683B7723680856401C14BAF764DFCE3
:1004800039D2CA9AB19B404BFAC200748B5801B260
:10049000D796000000009C921D5AE33F4F4A00018E
:1004A000AA02E1070000ED859E6AB1C467FB020065
:1004B00000000004595A01000100A905EC0DD10DFE
:1004C000000002000200A505EC0DD10D00000300A4
:1004D0000100AA05EC0DD10D0000040002008F05FB
:1004E000EC0DD10D610705000100AB05EC0DD10D40
:1004F0000000060002009105EC0DD10D0000070080
:100500000200A705EC0DD10D000008000100AC05AC
:10051000EC0DD10D000012000200AD05EC0DD10D67
:10052000000013000200AF05EC0DD10D0000140017
:100530000100B105EC0DD10D000015000000000018
:10054000E706F216000000AF00AE2B0014001A0000
:10055000080015001700E00004001600070009005D
:100560000A00E1001D001B00060019000500000044
:1005700000000000E30021522C002A0013001200AA
:100580000C0018001C00340033000F000E000D009A
:100590000B00290038003700360010001100000061
:1005A00000000000E600225228002B001E001F0061
:1005B000200021002200E0000000000000000000F8
:1005C0000000E1000000000000000000000000004A
:1005D00000000000E30001002C002A002700260094
:1005E000250024002300000000004F0052005100AD
:1005F00050000000000000000000000000000000AB
:1006000000000000E600235228002B001E021F02FB
:10061000200221022202E000000000000000000091
:100620000000E100000000000000000000000000E9
:1006300000000000E30023522C002A0027022602BB
:100640002502240223023500310030002F002E0045
:100650002D003502310230022F022E022D02000041
:1006600000000000E60001002800007C00000000FF
:10067000000000000000207823782578277800000B
:1006800000002178247826782878000000000000F7
:1006900000000000E30001002C000000000000004A
:1006A000000000000000000000000000000000004A
:1006B000000000000000000000000000000000003A
:1006C00000000000E6000100280009025B000301B1
:1006D00000A0FA0904000001030101000921110131
:1006E00000012244000705810308000109040100FC
:1006F0000203000000092111010001222200070568
:100700008203200001070503032000010904020001
:100710000103000000092111010001223200070538
:10072000840320000112010002000000085346016A
:10073000000100010203011C037600690061006CE6
:10074000003A006600360034006300320062003375
:100750000063000000120343006F0072006E00652A
:100760000020005600340000001A034B00650061B1
:1007700000200057006F0072006B00730068006F6C
:1007800000700000000403090400000000000000E5
:100790000000000000000000000000000000000059
:1007A000000000000000000000000000007E0F00BC
:1007B000D4FFFFFFC7000000780000000000000029
:1007C000002A2B28000000000000000000000000AC
:1007D0000000000029000000002C1E3420212224EB
:1007E000342627252E362D3738271E1F2021222379
:1007F0002425263333362E37381F0405060708090B
:100800000A0B0C0D0E0F10111213141516171819D0
:100810001A1B1C1D2F3130232D350405060708092E
:100820000A0B0C0D0E0F10111213141516171819B0
:100830001A1B1C1D2F3130354C0011241FBECFEF69
:10084000DAE0DEBFCDBF11E0A0E0B1E0E2E3F8E620
:1008500002C005900D92A439B107D9F726E0A4E9AA
:10086000B1E001C01D92A033B207E1F70E94C72793
:100870000C94CA330C940000482F20912E069091BE
:10088000F50557E0291302C080E0089530E0529F3B
:10089000F001539FF00D1124EA50FA4F8181681343
:1008A00006C08081481303C085818111EECF2F5F80
:1008B0003F4F2770E7CFFC01AC014C5F5F4F8FEFDC
:1008C00091E32191822728E030E087FF09C0880F5B
:1008D000892721503109C9F7E417F50791F70895E1
:1008E000880FF7CFE8EDF0E080818E7F8083109253
:1008F000E2001092DA001092E100A0EEB0E08C91DC
:1009000081608C9380818F77808319BCA7EDB0E0E4
:100910008C918E7F8C9380818F7E80831092DE05F8
:1009200008952091E4003091E50095E6A901209119
:10093000EC00822F817020FF06C08091E80080FFCC
:1009400006C080E008952091E80022FD1AC0809141
:10095000EB05882389F0853089F08091EB0085FDD7
:100960000FC02091E4003091E50042175307F9F2DF
:100970009150E1F684E0089582E0089583E00895BF
:1009800081E008958091ED0587FF13C08091E80014
:1009900082FF06C08091E8008B778093E80004C056
:1009A0008091EB058111F2CF08958091EB058823AA
:1009B000D9F38091E80080FFF8CF8091E8008E772E
:1009C000ECCF982F9093E900242F762F50E08917D1
:1009D00031F07091EC002091ED005091F00021FD7C
:1009E00007C09F5F973071F78093E90081E0089519
:1009F0003091EB003E7F3093EB003091ED003D7F76
:100A00003093ED003091EB0031603093EB00709348
:100A1000EC002093ED005093F0002091EE0027FDB4
:100A2000E0CF80E00895B0E0A0E0E9E1F5E00C94CB
:100A30000033C8EDD0E088818F7E8883E7EDF0E059
:100A400080818160808384E082BF81E08093DE05C5
:100A500088818E7F888302EE10E0F8011082109268
:100A6000DA0081EEC82ED12CF601108288818F77B2
:100A7000888388818068888388818F7D888319BC7A
:100A80001092EB051092EC051092EA051092E90520
:100A900090EEE92EF12CF70180818B7F8083888195
:100AA0008160888342E060E080E00E94E104F6011A
:100AB00080818E7F8083F801808181608083808146
:100AC00088608083F70180818E7F80838881806148
:100AD0008883CDB7DEB7E8E00C941C33FC0180912D
:100AE000F3059091F40586179707A0F0611571053D
:100AF00029F49091E8009E779093E80090E06115CA
:100B0000710551F4911108C08091E80082FF34C052
:100B100080E00895BC01F2CF8091EB058823C1F1FC
:100B20008530C1F18091E80083FD30C08091E800FC
:100B300082FDEACF8091E80080FFE1CF8091F30051
:100B40002091F200382F6115710519F02830310518
:100B500058F091E02830310509F090E02091E8004C
:100B60002E772093E800CBCF81918093F1006150E4
:100B700071092F5F3F4FE7CF8091EB05882341F04C
:100B8000853041F08091E80083FFBECF81E0089579
:100B900082E0089583E00895089508958091E00526
:100BA000089587E797E7909301088093000888E10C
:100BB0009AE00FB6F894A895809360000FBE9093CA
:100BC0006000FFCF2FB7F8946091DA057091DB05D4
:100BD0008091DC059091DD052FBF0895E8E9F1E0F3
:100BE0009191891303C0DF0111971C9291E0EE39B6
:100BF000F907B1F708959C01FC0132969FEF80E060
:100C00004191461751F09F3F19F4411101C0982FAF
:100C10008F5F8630A9F79F3F09F40895290F311D92
:100C200097FD3A95F90162830895A3E0B0E0EBE106
:100C3000F6E00C9406332091D7053091D80528179B
:100C40003907A1F09093D8058093D705E091D50599
:100C5000F091D605309751F024E029839B838A8355
:100C60000084F185E02DCE01019609952396E2E0FE
:100C70000C942233A3E0B0E0E0E4F6E00C940633F9
:100C80002091D3053091D40528173907A1F090930E
:100C9000D4058093D305E091D505F091D605309722
:100CA00051F023E029839B838A830084F185E02D22
:100CB000CE01019609952396E2E00C9422338091AF
:100CC000D105882359F0E091D505F091D6053097EC
:100CD00029F00190F081E02D0995089580E00895B4
:100CE0004115510511F0FA0109950895CF93DF934D
:100CF000EC014091C1055091C2056091C30570910E
:100D0000C4052FB7F8948091DA059091DB05A09186
:100D1000DC05B091DD052FBF841B950BA60BB70B2F
:100D2000843F9140A105B10518F58091C1059091CE
:100D3000C205A091C305B091C4058093BD059093F1
:100D4000BE05A093BF05B093C00584EF91E0A0E07D
:100D5000B0E08093B9059093BA05A093BB05B0931A
:100D6000BC05D093C905C093C805DF91CF91089504
:100D70000E94E2056093BD057093BE058093BF0598
:100D80009093C00582E390E0A0E0B0E0E2CFFC01E8
:100D90008481862351F492819923B9F06923808557
:100DA00083FF05C081E061110FC080E00895892FA5
:100DB0008F7092959F70982B862F8F7062956F70B1
:100DC000682B81E09613F1CF089581E0FDCFB0E06C
:100DD000A0E0EDEEF6E00C94FE328FEF9FEF443092
:100DE000510508F469C04091660541FB882780F9E8
:100DF00090E0880F991F42FB002700F910E0000FD8
:100E0000111F000F111F802B912B40FBCC24C0F829
:100E1000D12C8C299D2943FB222720F9C22FE0E009
:100E2000DE2F53E0CC0FDD1F5A95E1F78C2B9D2B65
:100E300044FBAA27A0F9B0E0E4E0AA0FBB1FEA95A3
:100E4000E1F78A2B9B2B45FBEE27E0F9F0E0A5E0CC
:100E5000EE0FFF1FAA95E1F78E2B9F2B46FB222753
:100E600020F930E0B6E0220F331FBA95E1F7822B6C
:100E7000932B47FB222720F930E03695322F22278B
:100E800037952795822B932B20916705322F317050
:100E9000F32EE82EF92A26952170B22EBB0CA82E2F
:100EA000BF28C501BB0CAA0BBB0BFB018083918340
:100EB000A283B38390E080E0CDB7DEB7EAE00C9484
:100EC0001A3380918F059091900590932C01809317
:100ED0002B010895EBE5F4E090E080E069EF7BE121
:100EE00040E25CE12FE63BE17783668351874087F0
:100EF0003387228797878687019670968830910579
:100F000099F7089581152CE7920741F42091B705D0
:100F10003091B805232B11F490E080E0089580E033
:100F20000895F894E82FE295EF70F0E031A1282FB2
:100F30002F7081E090E001C0880F2A95EAF7982F82
:100F40009095932391A392A1892B82A378940895DD
:100F50000F931F938091D105882329F00E94E20509
:100F60001F910F9108950E94E2050091ED011091EB
:100F7000EE012091EF013091F001600F711F821F8F
:100F8000931FEECF9091660592FF10C041E0282F8D
:100F90002471243009F040E031E0282F28712830F6
:100FA00009F030E0431711F02CE0822793FF10C0C6
:100FB00041E0282F2471243109F040E031E0282F4E
:100FC0002871283109F030E0431711F02CE0822716
:100FD0003091670530FF10C051E0282F217121307A
:100FE00009F050E041E0282F2871283009F040E056
:100FF000541711F029E0822731FF10C041E0282F5B
:101000002171213109F040E031E0282F2871283189
:1010100009F030E0431711F029E0822794FD877E24
:10102000089582389105B9F1B0F48133910509F43E
:101030007DC048F48932910509F46DC08A3291056A
:1010400009F47BC008958533910509F45FC08933A5
:10105000910509F10895833E9105D9F138F4803E58
:10106000910529F1823E910579F10895863E910519
:10107000D9F1873E910509F43EC0843E910541F5C2
:101080002091670521FF24C08091660584FD19C069
:1010900087EE90E0089520916605237009F05AC00C
:1010A0002091670523FF14C089E290E00895209104
:1010B000660520FD38C03091670530FF09C024FF68
:1010C00043C090E080E008952091660522FDF7CFAF
:1010D00008952091660522FD3AC03091670530FDE4
:1010E00039C024FFF5CFEDCF2091660523FFF0CF67
:1010F00024FDE7CFCDCF2091660523FD2EC0309192
:10110000670531FFEECF84EE90E0089520916605EB
:1011100025FFDECFC9CF2091660525FD21C0209196
:10112000670523FFD5CF89E390E0D2CF20916605F4
:1011300026FFCECF8AE290E008952091660526FF33
:10114000C7CF81E390E0089583EE90E0089582EEAA
:1011500090E0089580EE90E0089586EE90E0089586
:1011600085E390E008951F93CF93DF930E941108C9
:10117000EC01C11580E5D807F0F5C11580E4D8076A
:1011800008F09CC0C03ED10520F5CD3CD10508F04B
:1011900082C0C83AD10578F4C53AD10508F073C0C9
:1011A000C130D10519F1209709F1C430D105F0F40F
:1011B000D0E0C0E01BC0C33CD105D0F7C85AD0E096
:1011C000CC0FDD1FC65CDE4F0990D881C02DD464E2
:1011D0000DC0C11580E2D80708F0D1C0C11581E06B
:1011E000D80708F05AC0C83ED10510F7CE01DF91EC
:1011F000CF911F910895C03682E5D80718F5C03405
:1012000082E5D80708F06BC0C03282E5D80708F045
:101210005FC0C11582E5D80708F497C02C2F26952A
:10122000269580E2289F900111248C2F8370C1E0C5
:10123000D0E002C0CC0FDD1F8A95E2F7C22BD32B82
:10124000DD68D4CFC03A82E5D80760F4C03882E5C3
:10125000D80708F459C0CF71D0E0DC2FCC27C46F79
:10126000D06AC4CFC03C82E5D80708F462C0C03E53
:1012700082E5D80708F09CCFDC2FCC27CC27DF7184
:10128000C06FD06AB3CFC55AD0E0C95CDE4FC88109
:10129000D0E0D064ABCFD065A9CF8D2F0E94C2071C
:1012A000182FCE0199270E941108C12FD0E0DC2F02
:1012B000CC27CC27DF71C82BD92B98CFCE0199270B
:1012C0000E941108CC27DF70C82BD92BD06A8ECF93
:1012D000CF71D0E0DC2FCC27C16FD06A87CF2C2F05
:1012E00026952695277080E2289F900111248C2F47
:1012F0008370C1E0D0E002C0CC0FDD1F8A95E2F719
:10130000C22BD32BDC6872CF2C2F26952695277005
:1013100080E2289F900111248C2F8370C1E0D0E0DF
:1013200002C0CC0FDD1F8A95E2F7C22BD32BDA68FF
:101330005DCF8C2F8F710E94C207C82FD0E0DC2FA9
:10134000CC27CC27DF71D06251CF8C2F8F710E94B8
:10135000C20755E0D695C7955A95E1F7CF70D0E012
:10136000DC2FCC27282F30E084FF05C044E0220F7B
:10137000331F4A95E1F7C22BD32BD06937CF8D2F7E
:101380008F710E94C207182FCE0199270E94110861
:10139000C12FD0E0DC2FCC27CC27DF71C82BD92B75
:1013A000D2CF8091CA01882331F01092CA011092E5
:1013B000C9011092C8010895809590912F06982335
:1013C00090932F060895809590916E0598239093A1
:1013D0006E05089590916E05892B80936E05089592
:1013E0001092BF011092BE011092BD01089590911C
:1013F000BC01292F282321F0809589238093BC01EB
:10140000089580912E069091F505981301C00895D6
:101410008F5F8770FACF292F983078F5863068F57E
:1014200090E036E0239F800D911D1124682F677096
:1014300023E0969587952A95E1F7FC01EE0FFF1FB3
:10144000E80FF91FED55FE4F50E040E080E021919C
:1014500030E0062E02C0369527950A94E2F72170F7
:101460003327042E01C0220F0A94EAF7822B4F5F24
:101470005F4F4330510559F7089580E00895292FB3
:10148000983098F5863088F590E036E0239F800DFF
:10149000911D1124282F277041E001C0440F2A9587
:1014A000EAF723E0969587952A95E1F7FC01EE0F80
:1014B000FF1FE80FF91FED55FE4F30E020E070E010
:1014C0005191DF011197CB01022E02C096958795AD
:1014D0000A94E2F7817081958527842385278C9370
:1014E0002F5F3F4F2330310559F708958093FC015A
:1014F00008959091FC0121E030E0F90101C0EE0F68
:101500008A95EAF7D90102C0AA0FBB1F6A95E2F7D4
:10151000EA2B01C0220F4A95EAF7892F8E23E813A0
:1015200005C0292B822F0E94760A08952095292331
:10153000F9CF21E030E001C0220F8A95EAF720952B
:101540008091FC0182230E94760A08959091BF0148
:10155000809589238093BF01282F277069F489170C
:1015600059F09091670592FF07C0869586958695FC
:101570000E94990A0E94F009089521E030E001C01C
:10158000220F8A95EAF78091FC01822B0E94760A4D
:1015900008958093FB01089592959F70963091F085
:1015A00058F4925F9F70923058F4803F19F030F4F5
:1015B000883E30F481E008959A5FF4CF843FD1F300
:1015C00080E00895883EB0F3813FD1F7F3CF9C01CE
:1015D0003A9521153F4150F5FC01EE27F170BC0111
:1015E00066277270AC01442754709C012227387022
:1015F00094FF0EC080E1EF2B09F480E0672B09F027
:101600008062452B09F08064232B89F0806808955F
:1016100081E0EF2B09F480E0672B09F08260452B15
:1016200009F08460232B19F08860089580E0089504
:101630000F931F93CF93DF938B01EA019091EB05FA
:10164000943061F58093E9008FEF9091E80081502C
:1016500095FD06C095ED9A95F1F700008111F5CF43
:101660008091E80085FF1AC00E949104811111C089
:101670008091E80085FD06C08091E8008E77809318
:10168000E800F2CFF80181918F018093F10021975A
:1016900079F78091E8008E778093E800DF91CF9111
:1016A0001F910F91089543E050E0BC0184E00E9437
:1016B000180B0895CF93DF93EC0148E050E0BC0194
:1016C00081E00E94180B88E0FE01A1EEB5E00190D8
:1016D0000D928A95E1F7DF91CF910895019708F473
:1016E0000895EFE9FFE03197F1F700C00000F6CF71
:1016F000B0E0A0E0EEE7FBE00C94FE327C015B0181
:101700006A018091EC0101E010E08A3010F40AE0F7
:1017100010E0C1E0D0E0B501C701F60109958111E3
:1017200004C021960C171D072CF4CDB7DEB7EAE0F4
:101730000C941A33CC9F9001CD9F300D300D1124A5
:1017400090E080E045E34A95F1F7000001968217AA
:101750009307C1F7E0CFCF93C82F6FEF811160E7F8
:1017600085E290E00E948E336FEFC11161E086E266
:1017700090E00E948E336FEFC1116AE087E290E043
:101780000E948E33CF910895CF93DF93CDE6D2E0C0
:1017900060E0CE010E948E332196C11584E0D80707
:1017A000B9F7DF91CF9108951F93CF93DF93122F55
:1017B0008430E0F46830D0F44630C0F4C42FD0E078
:1017C000CC0FDD1F9CE0699FC00DD11D112490E658
:1017D000899FC00DD11D1124632FCE0189960E94CF
:1017E0008E33612FCE018A960E948E33DF91CF9186
:1017F0001F91089585E290E00E947033803789F44C
:1018000086E290E00E947033813059F487E290E0E4
:101810000E94703391E08A3009F090E0892F817046
:10182000089580E0FCCF0F931F93CF93DF93843014
:1018300030F5683020F5463010F5C42FD0E0CC0FDD
:10184000DD1F2CE0629FC00DD11D112430E6839F67
:10185000C00DD11D1124CE0189960E947033082F2E
:1018600010E0102F0027CE018A960E947033980155
:10187000282BC901DF91CF911F910F91089590E01E
:1018800080E0F8CF462F2091450430914604232B69
:1018900099F4703F39F4603F79F480914704909156
:1018A00048040895783040F4663030F4843020F4F1
:1018B000672F0E94130C089590E080E00895CF9266
:1018C000DF92FF920F931F93CF93DF936C010091F0
:1018D000FC018091FB01082BC3E0D0E010E0FC2E5E
:1018E000C8010C2E02C0959587950A94E2F780FDF9
:1018F0000CC02197A0F7F12C8F2DDF91CF911F9174
:101900000F91FF90DF90CF900895B6018C2F0E9429
:10191000420C0E94B308019761F3EECFCF93DF939F
:10192000EC010E945F0CBE010E94420C0E94B308B1
:10193000DF91CF910895FC012481222339F0808129
:1019400091810E948E0C0E94CC0A089580E0089537
:10195000A6E0B0E0EEEAFCE00C94053349835A833C
:1019600049815A819923A1F0222391F0CA010E9452
:101970005F0C182F682F89819A810E943F0A698124
:101980007A81812F0E94420C2696E3E00C94213349
:10199000CA010E940B0A182FF2CFFC01262F4081AA
:1019A000518162817381848195810E94A80C089580
:1019B0000F931F93CF93DF930FE815E0C9EAD1E0AF
:1019C000CE010E947033F80161918F01681719F000
:1019D000CE010E948E332196CD3CF1E0DF0781F7E6
:1019E000DF91CF911F910F9108950F931F93CF9384
:1019F000DF930FE815E0C9EAD1E0CE010E94703311
:101A0000F80181938F012196CD3CF1E0DF07A9F722
:101A1000C0ECD4E0FE0185919491009711F0FC0197
:101A200009952C96F5E0C035DF07A1F7DF91CF913E
:101A30001F910F9108959B01883070F49AE0899F5F
:101A4000B001112463537E4F4AE050E0C9010E9467
:101A5000603390E080E008958FEF9FEF0895AAE053
:101A6000B0E0E5E3FDE00C9406339C0137552F3FD1
:101A7000310509F068F4BE016F5F7F4F0E941B0DB6
:101A8000892B31F489859A852A96E2E00C942233D9
:101A90008091A7059091A805F7CFB0E0A0E0E3E51D
:101AA000FDE00C9400336C017B0164E670E088E794
:101AB0000E9440308C01E601EC0CFD1C17FD0BC0B0
:101AC000FE01849164E670E00E94AC308C012196A6
:101AD000CE15DF0599F70E94223181E0011511052D
:101AE00009F080E0CDB7DEB7E8E00C941C338091BC
:101AF0006C0590916D05911103C091E089270895BF
:101B0000882369F062E070E088E495E00E944D0D62
:101B1000811103C080916C05089510926C0580912D
:101B20006C05EBCFCF93C0916C0580916D05882338
:101B3000D1F00E94E205605A75418F4F9F4F60932C
:101B400068057093690580936A0590936B05C111D0
:101B500008C062E070E086E495E00E944D0D8111BE
:101B600005C0C0916C058C2FCF91089581E08093C2
:101B70006C05F7CF9091670592FB222720F9281773
:101B800079F080FB92F990936705609166057091FA
:101B9000670584E090E00E94AC3382E00E94A60AD0
:101BA0000895DA019C012E5F3F4FF9014591549150
:101BB000F90125913491A217B30758F0FC0134962E
:101BC000859194910E9450330E94D80C90E080E05F
:101BD00008958FEF9FEF0895DB01FC013296259168
:101BE00034914217530758F0FC0134966591749173
:101BF000A901CD010E94503390E080E008958FEF5D
:101C00009FEF0895AAE0B0E0E8E0FEE00C94FC321B
:101C10000EEE14E08CEDC82E84E0D82E9DE1E92E66
:101C200092E0F92E27E0922E3BEDA32E34E0B32E66
:101C300088248394D6010D931D936D014AE050E0F2
:101C4000B701CE0101960E946033F8013896DF019A
:101C5000892D1D928A95E9F789819A81D80111967B
:101C60009C938E938F8112968C9312978D811396ED
:101C70008C931397888514968C9314978985159661
:101C80008C9315978B819C8117969C938E931697B6
:101C900018961C9218978A8587FF3CC01E961C9246
:101CA0001E921D9780FF03C0D80118968C9281FF69
:101CB00004C0F80190859260908782FF07C0D80128
:101CC00018969C911897946018969C9383FF04C073
:101CD000F80190859860908784FF07C0D801189616
:101CE0009C911897906118969C9385FF04C0F80109
:101CF000808580628087015F1F4FFAE0EF0EF11C44
:101D00008DE6E81682E0F80609F094CF2A96ECE01A
:101D10000C941833F801B686A586C4CFA4E0B0E0D1
:101D2000E4E9FEE00C9405334091E8015091E901AB
:101D30006091EA017091EB012FB7F8948091DA0578
:101D40009091DB05A091DC05B091DD052FBF841BD0
:101D5000950BA60BB70B11E084369105A105B105D3
:101D600070F10E94A8076E5F7F4F8F4F9F4F69836E
:101D70007A838B839C83809112019091130181520D
:101D80009E4F4091110150E04530510510F044E064
:101D900050E0BE016F5F7F4F0E94503382E090E0C1
:101DA0000E946C32182F882351F00E94E205609344
:101DB000E8017093E9018093EA019093EB01812F90
:101DC0002496E3E00C942133EF92FF921F93CF937C
:101DD000DF9300D000D00F92CDB7DEB77B0190E04B
:101DE00080E00E946C32182F882309F487C040914C
:101DF000040150E04115510511F041E050E06091BF
:101E000005017091060161527E4FCE0105960E9438
:101E100050334091DB015091DC016091DD01709104
:101E2000DE012FB7F8948091DA059091DB05A0913F
:101E3000DC05B091DD052FBF841B950BA60BB70BFE
:101E400084369105A105B10540F480EE91E00E9431
:101E50005B049D81891709F451C081E090E00E94E4
:101E60006C3281111AC010E08091D7019091D80195
:101E7000A091D901B091DA01F70180839183A28307
:101E8000B383812F0F900F900F900F900F90DF91E1
:101E9000CF911F91FF90EF90089540910C0150E079
:101EA0004530510510F044E050E060910D01709113
:101EB0000E0161527E4FCE0101960E94503380EE9A
:101EC00091E00E945B049D818913CDCF0E94E205C1
:101ED0006093DB017093DC018093DD019093DE0160
:101EE00089819A81AB81BC818093D7019093D8017D
:101EF000A093D901B093DA0111E0B6CF8091E0014F
:101F00009091E101A091E201B091E30189839A836C
:101F1000AB83BC831111E4CFA7CF1F920F920FB6F2
:101F20000F9211242F933F934F935F936F937F935F
:101F30008F939F93AF93BF93EF93FF938091E100B3
:101F400082FF09C08091E20082FF05C08091E1001C
:101F50008B7F8093E1008091DA0080FF24C0809124
:101F6000D80080FF20C08091DA008E7F8093DA0055
:101F70008091D90080FF9DC080E189BD82E189BD4B
:101F800009B400FEFDCF81E08093EB058091DE0572
:101F9000811109C00E9472040E9413058091E20021
:101FA00084608093E2008091E10080FF17C08091FF
:101FB000E20080FF13C08091E2008E7F8093E200F8
:101FC0008091E20080618093E2008091D80080627D
:101FD0008093D80019BC85E08093EB058091E100E7
:101FE00084FF2BC08091E20084FF27C080E189BD7F
:101FF00082E189BD89B5982F917080FFFBCF8091D8
:10200000D8008F7D8093D8008091E1008F7E8093EF
:10201000E1008091E2008F7E8093E2008091E200F7
:1020200081608093E2008091EC05882309F447C029
:1020300084E08093EB058091EB058091E10083FFC4
:1020400027C08091E20083FF23C08091E100877F59
:102050008093E10082E08093EB051092EC05809183
:10206000E1008E7F8093E1008091E2008E7F80937B
:10207000E2008091E20080618093E20042E060E053
:1020800080E00E94E1048091F00088608093F0007D
:10209000FF91EF91BF91AF919F918F917F916F9140
:1020A0005F914F913F912F910F900FBE0F901F9016
:1020B000189519BC1092EB051092DE0574CF809133
:1020C000E30087FD93E09093EB05B5CF78941F92E2
:1020D0001FB61F9211248F939F93AF93BF9380914C
:1020E000DA059091DB05A091DC05B091DD05019644
:1020F000A11DB11D8093DA059093DB05A093DC054B
:10210000B093DD05BF91AF919F918F911F901FBE3E
:102110001F9018959C014FB7F8948091DA05909123
:10212000DB05A091DC05B091DD054FBF821B930B51
:1021300008952FB7F8948091DA059091DB05A0916E
:10214000DC05B091DD052FBF0895ACE0B0E0EBEA0F
:10215000F0E10C94FB328E010F5F1F4F88E0D80135
:102160001D928A95E9F782E7C82E81E0D82EF12CDE
:10217000E12CAA24A394B12C2CE7822E21E0922EEC
:10218000F60181916F018F3F09F442C0F894E82F66
:10219000E295EF70F0E021A18F70A50102C0440F1D
:1021A000551F8A95E2F7CA01922F982B91A392A10D
:1021B0008095892382A3789400C0E6E7F1E0712C32
:1021C00031E021912F3F09F48DC0A22FA295AF706D
:1021D000B0E090968C9190E02F7002C09595879515
:1021E0002A95E2F780FD7EC0832F782A330F8E1662
:1021F0009F0639F7F601319780818F3F11F00E94D9
:10220000910750EA5A95F1F7F801EE0DFF1D708223
:102210008FEFE81AF80AA4E0EA16F10409F0B0CF4B
:1022200048E050E0B80181EF91E00E94433300970D
:1022300041F028E0F801A1EFB1E001900D922A955C
:10224000E1F70091FA0110E0035C1B4F892B09F4C0
:102250004BC081E08093CF010E9499109093CE01F2
:102260008093CD01F12CE090D105EE2009F496C0C9
:1022700019861A861B861C868091EC018A3008F02C
:1022800057C044EE5EE0BE01675F7F4FC8010E9409
:10229000780B882309F471C04EE85EE0BE01675FE9
:1022A0007F4FC8010E94780B882309F466C0109202
:1022B000EC018091F90190E044E050E0BE01675FDD
:1022C0007F4F835C9B4F0E94433321E02093D601D4
:1022D000892B09F044C0E12C8E2D8F292C96EDE03E
:1022E0000C94173380E081CFF090CF01FF2009F4E8
:1022F000B9CF8091CD019091CE010E948A100597AF
:1023000008F4B0CF44E050E061EF71E0C8010E94F2
:102310004333892B59F084E0E1EFF1E0D8010190DB
:102320000D928A95E1F71092CF019DCFF12CFBCF52
:102330008091D0019091D1010E948A10843F9140F8
:1023400008F09FCF8091D601882329F2FE013996AB
:1023500084E0DF011D928A95E9F71092D601E091A1
:10236000F901F0E0E35CFB4F89859A85AB85BC857C
:1023700080839183A283B383AFCF8091EC018F3FA1
:1023800031F08F5F8093EC018A3008F492CF0E9485
:1023900099109093D1018093D001D4CF84E0F801BB
:1023A000A0EEB1E001900D928A95E1F780EE91E008
:1023B0000E945B048093DF018090E4019090E5012E
:1023C000A090E601B090E7018091D2019091D301F5
:1023D000A091D401B091D50188169906AA06BB0632
:1023E00009F47ACF8092D2019092D301A092D401C5
:1023F000B092D5010E94E205861A970AA80AB90A86
:102400008092ED019092EE01A092EF01B092F00166
:1024100063CFCF93C82F8091670582FF0CC0809156
:10242000CA018C1741F00E9499109093C9018093C2
:10243000C801C093CA01CF9108959091CA01292F74
:10244000282361F0809589238093CA01882339F07D
:102450000E9499109093C9018093C801089590E05B
:1024600080E0F8CF9091670592FF10C098E0899FB7
:1024700090011124622B6093BF010E94BD0A0E944B
:1024800099109093BE018093BD0108950E94BD0AEA
:1024900008958091910590919205892B89F00E9471
:1024A00099102091C8013091C901AC01421B530B16
:1024B00081E020919105309192054217530708F46D
:1024C00080E081700895CF9380916E05C0912F06B2
:1024D000C82B8091CA018823E9F0809191059091E1
:1024E0009205892B29F00E94491281110E94D1097D
:1024F0008091CA01C82B20E088E991E0FC0131916C
:10250000CF0131112F5FF1E08E399F07B9F721110B
:102510000E94D1098091C50580958C239091C605B4
:10252000892B8093960148E050E060EC71E086E9E9
:1025300091E00E944333892BA9F088E0E6E9F1E0BD
:10254000A0ECB1E001900D928A95E1F7E091D505FC
:10255000F091D605309731F00280F381E02D86E9C5
:1025600091E00995CF910895CF93DF93EC014A85CF
:102570005B856E857F850E9470068B810E94DC09D9
:102580008C810E94E3090E94631286E0FE01119291
:102590008A95E9F7DF91CF910895CF93DF93EC010E
:1025A0008D8181FD14C082608D8380912F069B8177
:1025B000892B80932F068C810E94EA090E94631266
:1025C000488559856E857F85CE010E9470061092E0
:1025D000D0051092CF058D8180FD03C0CE010E94F1
:1025E000B412DF91CF91089580912D01877F809360
:1025F0002D0182E00E94DC0980912D0184FF06C03C
:102600008F7E80932D0182E00E94EA0980912D0146
:1026100085FF06C08F7D80932D0180E20E94EA092C
:102620000E946312089510926E05E8E9F1E086E0D9
:10263000DF011D928A95E9F790E080E00E943A065A
:1026400090E080E00E94150610922F060E9463120F
:102650000895AAE2B0E0EFE2F3E10C9405338DEEC9
:1026600095E02091F100DC012D93CD01B5E0853F8F
:102670009B07B9F78091EE05833009F472C0B8F476
:10268000813009F449C0823009F4B3C08091E80078
:1026900083FF96C28091ED059091EE059A3008F087
:1026A0008FC2E92FF0E0E453FC4C0C942D338A30B8
:1026B00009F48EC08B3009F471C0893039F78091EC
:1026C000ED05813219F78091F1059091F20500979F
:1026D00011F00297D9F68091E800877F8093E80097
:1026E0008091E80082FF38C09091F3008091F20061
:1026F000029731F48091F100813011F0863021F49D
:102700008091F1008093E0058091E8008B778093C1
:10271000E8000E94C204BACF8091ED05813A09F029
:10272000B5CF8091E800877F8093E8008091F10524
:102730009091F205892B61F468E081EE95E070E0FC
:102740000E946E058091E8008B778093E8009ECF11
:1027500060E090E080E0F3CF8091EB058111C0CF85
:1027600095CF8091ED05813A09F090CF8091F105E8
:102770009091F205892B09F089CF8091E800877F3D
:102780008093E8008091E80080FFFCCF80912E01CB
:102790008093F1008091E8008E77B9CF8091ED05AC
:1027A000813209F073CF8091F1059091F205892B68
:1027B00009F06CCF8091E800877F8093E8000E9449
:1027C000C2048091EF0580932E010E9413135ECF07
:1027D0008091ED05813209F059CF8091E800877F23
:1027E0008093E8000E94C2048091F0058093DF0589
:1027F0004DCF8091ED05813A09F048CF8091E800F6
:10280000877F8093E8008091E80080FFFCCF809173
:10281000DF05BECF803899F0823809F0D1C18091B0
:10282000F1058F70873008F0CBC18093E90080916B
:10283000EB0085FB882780F91092E90006C08091A3
:10284000E9059091EA05911182609091E800977FE7
:102850009093E8008093F1001092F1008091E800DD
:102860008E77AAC1882309F498C1823009F0A8C1E3
:102870008091EF0581119BC18091F1058F702FEF41
:10288000280F263008F09CC18093E9002091EB00CE
:1028900020FF8DC1933031F48091EB0080628093F2
:1028A000EB0085C19091EB0090619093EB0021E0EB
:1028B00030E001C0220F8A95EAF72093EA001092D7
:1028C000EA008091EB008860EACF811179C1109114
:1028D000EF051F778091E3008078812B8093E300E0
:1028E0008091E800877F8093E8000E94C204809175
:1028F000E80080FFFCCF8091E30080688093E300D4
:1029000082E0111183E08093EB055AC18058823038
:1029100008F056C12091EF053091F0052C3DE3E021
:102920003E07A1F583E08A838AE289834FB7F89452
:10293000DE01139620E03EE051E2E32FF0E05093F9
:102940005700E49120FF03C0E295EF703F5FEF7006
:102950008E2F90E0EA30C0F0C7968D939D932F5F45
:10296000243159F74FBF8091E800877F8093E800BA
:102970006AE270E0CE0101960E946E058091E80047
:102980008B778093E8001CC1C096E7CF8091F1055A
:102990009091F205432F55274330510509F44AC061
:1029A00078F54130510509F485C08BE590E0EAECFB
:1029B000F6E04230510509F003C12091E800277F7D
:1029C0002093E8002091F3053091F40582179307D6
:1029D00008F49C0140E02115310509F070C0411157
:1029E0006EC08091E80082FDC9CF8091EB058823FD
:1029F00029F2853019F28091E80083FFF2CFBECF33
:102A00004132510509F447C04232510509F0D8C09E
:102A10008330910508F0D4C0FC01EE0FFF1FE95789
:102A2000FE4F0190F081E02D8C579E4FDC018C9180
:102A300090E01DC0332721303105E9F02115310523
:102A400079F022303105F9F02330310509F0B8C0B2
:102A5000E7E3F7E0E4918E2F90E0E7E3F7E007C0CB
:102A6000E5E8F7E0E4918E2F90E0E5E8F7E00097E5
:102A700009F4A6C0A2CFE9E6F7E0E4918E2F90E03A
:102A8000E9E6F7E0F4CFE5E5F7E0E4918E2F90E09A
:102A9000E5E5F7E0ECCF8330910508F091C0880FB1
:102AA000991FFC01E357FE4F0190F081E02D89E072
:102AB00090E083CF82E190E0E5E2F7E07ECF809185
:102AC000EB05882309F45ACF853009F457CF80915C
:102AD000E80083FD53CF8091E80082FD82CF809192
:102AE000E80080FF78CF9091F3008091F2002115EB
:102AF000310519F08830910550F041E0089709F050
:102B000040E08091E8008E778093E80064CF4491A4
:102B10004093F1003196215031090196E8CF803879
:102B200009F04EC08091E800877F8093E800809193
:102B3000EC058093F10092CE811142C01091EF0517
:102B40001230F0F58091E800877F8093E8001093C1
:102B5000EC050E94C204112311F084E005C08091AD
:102B6000E30087FDFACF81E08093EB0542E061EC62
:102B700081E00E94E10442E261EC84E00E94E10411
:102B800042E261EC82E00E94E10442E260EC83E018
:102B90000E94E1048091EB0513C08091EF05813024
:102BA00079F481E0933009F080E08093EA05109297
:102BB000E9008091E800877F8093E8000E94C204CA
:102BC0008091E80083FF0AC08091E800877F8093AE
:102BD000E8008091EB0080628093EB00AA96E3E02E
:102BE0000C9421331F920F920FB60F9211242F9342
:102BF0003F934F935F936F937F938F939F93AF9385
:102C0000BF93CF93DF93EF93FF93D091E900DF70F1
:102C10008091EC00C82FC17080FDC0E81092E900DF
:102C20008091F000877F8093F00078940E942913B0
:102C30001092E9008091F00088608093F000CD2B25
:102C4000CF70C093E900FF91EF91DF91CF91BF91D9
:102C5000AF919F918F917F916F915F914F913F9134
:102C60002F910F900FBE0F901F901895EFE8F5E091
:102C7000128E138E8FEA90E09183808385E0848F9B
:102C800028E833E13383228322E330E0378B268B3D
:102C900028EC30E0318F208F158E178E168E20E5B0
:102CA00030E031A320A382A30E94D80C0E9413130A
:102CB0001092670510926605E7E6F5E08081846072
:102CC0008083609166057091670584E090E00E94C2
:102CD000AC330E94F50C0895A4E1B0E0E2E7F6E120
:102CE0000C94FB32A090B705B090B80581E090E05D
:102CF0009093B8058093B7058AE4C82E85E0D82E56
:102D000000E0760110E015C0F40125913491472DC3
:102D1000612F802F0E94D40B82E0880E911C739447
:102D2000E6E07E12F1CFFCE0EF0EF11C1F5F1830E1
:102D300019F04701712CE8CF0F5F80E6C80ED11C57
:102D40000430F9F60E9436161A8219821C821B8200
:102D50001E821D8218861F8288EC90E09A878987E0
:102D60000DEC11E04AE050E0B801CE0101960E945E
:102D7000B233065F1F4F0D31E2E01E0799F77E0167
:102D8000FBE0EF0EF11C8AE0F70111928A95E9F75A
:102D90008FEF9FEF988B8F8787E08C8B4AE050E016
:102DA000B801C7010E94B233065F1F4F0D36F2E033
:102DB0001F07A1F7B092B805A092B7056496EDE0A1
:102DC0000C94173380E00E94AB0B60E088E290E047
:102DD0000E948E330E946C160E94C40B81E00E94F8
:102DE000AB0B0895CF92DF92EF92FF928FEF9FEFA0
:102DF0004430510508F46CC0FB01C080D180E280F2
:102E0000F3800E94131380916605C0FA80F9B70120
:102E1000A601769567955795479540FB81F9B701CF
:102E2000A60122E076956795579547952A95D1F7A3
:102E300040FB82F9B701A60133E076956795579577
:102E400047953A95D1F740FB83F9B701A601E4E035
:102E50007695679557954795EA95D1F740FB84F9A4
:102E6000B701A601F5E07695679557954795FA95D0
:102E7000D1F740FB85F9B701A601A6E076956795E5
:102E800057954795AA95D1F740FB86F9B701A6015A
:102E9000B7E07695679557954795BA95D1F740FB7A
:102EA00087F98093660580916705D0FA80F9D1FA99
:102EB000CC24C0F8C0FA81F980936705609166055B
:102EC0007091670584E090E00E94AC3390E080E070
:102ED000FF90EF90DF90CF9008950E9413132FEF93
:102EE00084E39CE0215080409040E1F700C0000066
:102EF00088E19AE00FB6F894A895809360000FBE21
:102F000090936000FFCF882321F00E94DC090E948B
:102F100063120895882339F090912F06982B90938F
:102F20002F060E9463120895882321F00E94E3096E
:102F30000E9463120895882321F00E94EA090E94EA
:102F400063120895882339F19CEF980F913A28F481
:102F50000E94EE050E946312089590E2980F983047
:102F600050F4877091E001C0990F8A95EAF7892F94
:102F70000E94E309EFCF9BE5980F933028F490E08F
:102F800080E00E943A060895885A8B3120F490E040
:102F900080E00E9415060895FF920F931F93CF9330
:102FA000DF93F82E0091CA051091CB05011511058C
:102FB00009F449C01092C9051092C8051092C505C0
:102FC0001092C605D8011696CD91DC919E013A95D6
:102FD00021153F4108F4D07ED1E0C11101C0D0E0FD
:102FE000D8011996ED91FC911A97309731F01B9604
:102FF0006D917C9180E00995D823DD2339F08CEF29
:103000008C0F813A30F58C2F0E94EE05FF2099F04D
:10301000E091CA05F091CB05808584FD0CC08091BC
:10302000C705882341F0808191819C01215031099D
:103030002F333E47A0F00E9463121092CB051092EE
:10304000CA051092C705C801CDB7DEB7E5E00C94FC
:103050001F330E9463128C2F0E94A217D7CF0E94A9
:103060007606E9CFCF93DF93EC010E94A217CE0141
:103070000E94E70A9E01205E31092830310510F0D8
:10308000CD2B29F40E949417DF91CF9108950E94CF
:103090008317FACFCF93C82F8823A9F08CEF8C0F1A
:1030A000813A98F4E8E9F1E08EE991E02191C217C4
:1030B00099F18E179F07D1F76C2F86E991E00E9456
:1030C000FB050E946312CF91089580E28C0F883037
:1030D00048F4C77081E001C0880FCA95EAF70E94E2
:1030E000EA09EFCFEBE5EC0FE33040F4F0E0E95C08
:1030F000FE4F808190E00E943A06E5CFC85ACB315E
:1031000010F7EC2FF0E0EE0FFF1FE65CFE4F808122
:1031100091810E941506D7CF8C2F0E94EE050E9448
:103120006312CACF1F93CF93DF93182FC091AF05BF
:10313000D091B005893321F0C091AD05D091AE0595
:10314000812F0E944A18209739F4812F0E94A217DC
:10315000DF91CF911F9108958FE99FE00197F1F7DB
:1031600000C000002197EFCFB0E0A0E0EAEBF8E16B
:103170000C94FE32EC018AE0A82E2881222309F467
:103180008FC02130C9F599818A81913021F422962E
:103190000E94921805C0923029F422960E944A1883
:1031A0002196EBCF933021F422960E94A217F8CFFC
:1031B000943011F02196F4CF229630E020E0AE0159
:1031C0004F5F5F4F8053990B8A30910550F021502B
:1031D000310930F38FE99FE00197F1F700C000005B
:1031E000F6CFA29EB001A39E700D11249C01260F64
:1031F000371F8981EA01E3CFE22FF0E0E754F84F6F
:10320000B490822F86958695869590E0FC01E755CF
:10321000F84FE4902770F12C022E02C0F594E79449
:103220000A94E2F731E0E322FF24FC01E756F84F6D
:10323000C490D12C022E02C0D594C7940A94E2F710
:1032400031E0C322DD24FC01E757F84F049110E080
:1032500002C0159507952A95E2F701701127E11430
:10326000F10419F081EE0E944A18C114D10419F03A
:1032700086EE0E944A188B2D0E949218C114D10428
:1032800019F086EE0E94A217E114F10419F081EE04
:103290000E94A2170115110509F482CF8CE278CFA4
:1032A000CDB7DEB7EAE00C941A33B0E0A0E0EBE56E
:1032B000F9E10C94FE327C015B01C42FD22FFC019A
:1032C00085818823A9F04093CE050E9499109093A0
:1032D000CD058093CC05C77081E001C0880FCA95E9
:1032E000EAF70E949B17CDB7DEB7EAE00C941A33D9
:1032F0001091CE05141338C08091CC059091CD0566
:103300000E948A106C01B701C5010E942F0DC816DA
:10331000D90650F5C0E2CD0F1D17C1F080E2810F34
:10332000883048F4177081E0012E01C0880F0A949C
:10333000EAF70E949417C83048F481E09D2F9770F7
:1033400001C0880F9A95EAF70E949B17802F0E9470
:103350009218C83040F6D77081E001C0880FDA9526
:10336000EAF70E949417BFCFC77081E001C0880FB1
:10337000CA95EAF7F6CFCF93DF93EC010E94E70AF4
:103380009E01205E31092830310510F0209741F46C
:103390000E949B178C2F0E944A18DF91CF910895AD
:1033A0000E948A17F7CF662329F020912F0622600A
:1033B00020932F069C0130522115304308F49927A1
:1033C0000E94BB190895B0E0A0E0E9EEF9E10C9489
:1033D00000336C018B01E42E80912D0182FF87C0A8
:1033E000C091B505D091B605CC15DD0521F0C1140D
:1033F000D10409F07CC080912D018B7F80932D0139
:1034000081FD6EC08091B3059091B405A801481B61
:10341000590B81E020912B0130912C014217530769
:1034200008F480E08170F82E80912D01F0FA81F986
:1034300080932D01FE0183E0F695E7958A95E1F7EB
:10344000EE71FF27E159FA4F20813181AE014F70B3
:10345000552781E090E002C0880F991F4A95E2F756
:10346000FF2009F43FC0822B932B918380838091AE
:103470006E0581FF08C080912D01806180932D0130
:1034800082E00E94E30980916E0585FF08C080916B
:103490002D01806280932D0180E20E94E3096F2D4F
:1034A000CE010E94D319EE2031F08091AA0585FF4C
:1034B00002C086FF30C08091AD059091AE050E949C
:1034C0006E0B8091B5059091B6059C013052211587
:1034D000304308F499270E9432180E94F41217C052
:1034E00081E0A0CF8095909582239323BECFC60123
:1034F000905281159043A0F4C60199270E9432187A
:103500008091B5059091B6058C159D0531F310930A
:10351000B4050093B305CDB7DEB7E8E00C941C33D7
:10352000C601ECCFABE1B0E0E8E9FAE10C94053379
:103530004E8B5F8B688F798F8A8F9B8F882349F0A2
:103540008091A1019091A20101969093A201809394
:10355000A1018B8D811110922F061D8A86E0FE013C
:103560007696DE011F9601900D928A95E1F7809183
:10357000670582FF1EC08091910590919205892B6D
:10358000C1F00E9499102091BD013091BE01821BB3
:10359000930B20919105309192058217930720F0AB
:1035A0008091BF0182FF72C00E94491281110E9466
:1035B000D1098B89882329F061E0CE010F960E9402
:1035C000CD0C87E0FE013F96DE01189601900D922A
:1035D0008A95E1F7CE0108960E94CE2581110CC094
:1035E00087E0FE013896DE01119601900D928A95D2
:1035F000E1F78C8581110BC017E080912E06909128
:10360000F505891331C06B96E3E00C9421332091CA
:10361000F50530E0C90101968770992740912E0683
:103620004817190699F097E0929FD001939FB00D2B
:103630001124AA50BA4FFE01319601900D929A952D
:10364000E1F78093F5050E94010AD6CF0E9413137B
:103650001092F50510922E0687E0E5EBF1E0DF0110
:103660001D928A95E9F7C8CF819FC00111248A5025
:103670009A4F0E94CE25882331F280912E0690E049
:1036800001968770992780932E06B7CF82E00E941B
:10369000A60A8ACFA6E0B0E0E0E5FBE10C94063391
:1036A0009093480480934704811520E2920730F4F8
:1036B0000E9432182696E2E00C94223380EF898330
:1036C0008A830E9499108160682F9C838B83498133
:1036D0005A817C8181E090E00E94921AEBCF0F9397
:1036E0001F93CF93DF938C01EB0161E574E08C2F86
:1036F0000E941B0D892BA1F48091AD059091AE0520
:103700000E946E0BDD27C75BDB4F8881F8011282B8
:1037100018828330F1F048F4813059F0823081F022
:10372000DF91CF911F910F9108958430B9F08530CA
:10373000B9F78091510490915204009789F306C023
:103740008091530490915404009799F30E944A1B6E
:10375000E7CF8091550490915604F6CF809157049D
:1037600090915804009791F72091510430915204A0
:10377000809153049091540421153105F1F2009782
:1037800029F7C901E3CFA6E0B0E0E9ECFBE10C9436
:1037900006339093480480934704811520E29207F2
:1037A00030F40E94BB192696E2E00C94223380EF9D
:1037B00089838A830E9499108160682F9C838B8300
:1037C00049815A817C8181E091E00E94921AEBCF7D
:1037D000CF93DF93EC010E94C31B8091AD059091C4
:1037E000AE050E946E0BCE010E944A1BDF91CF9165
:1037F00008950F931F93CF93DF938C01862F61E57C
:1038000074E00E941B0D892BB1F4C0915104D0913A
:103810005204209781F0F8018281833051F4CE0167
:103820000E94E81BCE010E94E81BCE010E94E81B0B
:1038300002C08430D0F7DF91CF911F910F9108958E
:103840000F931F93CF93DF938C01EB0161E574E03D
:103850008C2F0E941B0D892B09F05CC0FE01FF27F5
:10386000D80112968C911297E75BFB4F8130B9F427
:1038700015969C9192FF02C080830AC090FFFCCFF6
:1038800082E0808380915304909154040097B9F4AE
:1038900080915104909152040097E1F110C0823060
:1038A000B9F515968C9182FD28C080FD0BC083E090
:1038B00080838091550490915604009701F10E94F5
:1038C000C31B28C084E080838091570490915804E2
:1038D0000097A9F780915104909152040097F9F054
:1038E0000E94E81B8091530490915404009739F78B
:1038F0008091510490915204E2CF85E080838091C1
:10390000510490915204009729F00E94E81BF0CFD7
:1039100086E08083DF91CF911F910F910895809170
:10392000530490915404B8CFA7E0B0E0EAE9FCE179
:103930000C94F6327C01DC0114968C91882309F4F6
:1039400057C161E0C7010E94CD0C8C01F701858150
:10395000882319F18091CF059091D0050097E9F067
:1039600008171907D1F0992774E0880F991F7A95E5
:10397000E1F7FC01E05AFB4F208124602083855A47
:103980009B4FDC010D931C930E94CD1210922F06C9
:1039900061E0C7010E94CD0C8C01F701858188236D
:1039A00009F4B1C0C80197578038910508F0DEC00E
:1039B000D02EFFE0F01708F40BC18FEF93E00E94C8
:1039C0007033811105C10DE612E0D11036C01982A5
:1039D0001A821B821C8299249A9468013FEFC31AB1
:1039E000D30AC8010E94703389831A82882309F49C
:1039F000EFC0813009F081C0580142E0A40EB11C33
:103A0000C6010E947033C82E8A83882309F4E0C05F
:103A1000C5010E947033D82E8FEF8C0D8330D8F4FF
:103A2000580153E0A50EB11CDB82DD2021F0CE0150
:103A300001960E94B4188501D0CF011524E0120729
:103A400009F4C6C0C8010E947033811101C0DA9424
:103A50000F5F1F4FBACF8BEF8C0D833030F5C8014D
:103A60000396DB825C01DD2031F35801A4E0AA0E4D
:103A7000B11C0E9470338C838823E9F28B819C8176
:103A80008130BFEF9B0710F0982F8827E6E0CE1615
:103A900031F0F7E0CF1631F00E94E81BCCCF0E9446
:103AA000C31BC9CF0E944A1BC6CF24E0C212C3CF9A
:103AB000580134E0A30EB11CC80103960E94703374
:103AC000DD2009F485C0882309F482C08150990B58
:103AD000989E9001999E300D11244D2D4150550B0B
:103AE000CA01820F931F019708F4A5CFAFE9BFE089
:103AF0001197F1F700C00000F6CFCE0101960E94A9
:103B0000B418560198CF6801E7E5DE1AFFEFCF162B
:103B1000D10409F058F561E574E08C2D0E941B0D6D
:103B2000892B21F5C60154E0880F991F5A95E1F7BA
:103B3000FC01E55AFB4F22812130A1F5209151046F
:103B400030915204232B91F020915304309154046E
:103B5000232B61F020915504309156044091570475
:103B600050915804242B352B232B21F1D701159686
:103B70005C90552009F440C00E35BCE71B0729F1C5
:103B80000F35ECE71E0741F00D35FCE71F07A1F5E7
:103B9000809100018823C9F01092000180E00E940A
:103BA000CC1716C0223011F72091550430915604DD
:103BB000232BE1F2FC01E05AFB4F20812E7F208372
:103BC000855A9B4F0E94CD12D1CF81E08093000196
:103BD0008091BF01877061F0D70115968C91882381
:103BE00039F08091670582FF03C082E00E94A60A37
:103BF0002796E2E10C94123380910001882309F4A6
:103C000048C6480120EE821A91084090CA0180916E
:103C1000BC01482A80916E05482A38E08316910439
:103C200008F086C098012770332781E090E001C03A
:103C3000880F2A95EAF7552009F477C0482AD7015A
:103C40008D919C910E940B0A21E030E0390102C065
:103C5000660C771C8A95E2F7E091CA05F091CB05D6
:103C6000FF83EE8320909E0130909F011D822D8165
:103C7000E22FF0E0EE0FFF1FE452FB4FC080D18037
:103C8000C114D10409F460C6411005C0D6011296D2
:103C90008C91811189C0F601838190E08621972162
:103CA000892B09F481C08085982F977009F487E0EB
:103CB000F8E08F16910408F055C0552009F44EC065
:103CC00086958170882309F46FC0D601AD90BC90B1
:103CD0000A151B0519F4552009F466C0EE81FF8111
:103CE000CE16DF0609F460C0D6011D96ED91FC9159
:103CF000309721F08081882309F456C0642DC601D5
:103D00000E94C706882309F44FC00A151B0509F055
:103D100083C60115110509F484C6511084C6A21486
:103D2000B30409F041C0512C7EC68095482287CF4C
:103D3000552009F4F2C510939F0100939E010E9443
:103D4000E2056093C1057093C2058093C30590930B
:103D5000C4051092C9051092C80571CF82FB88274F
:103D600080F9B0CF552001F18170ACCF0E94A2172D
:103D700079C60497813A910558F46A2D86E991E055
:103D80000E94FB05552009F484C50E94631220CFD0
:103D90000E9463128FE39CE90197F1F700C00000D5
:103DA0008A2D0E944A18EECF9D819F5F9D835FCF31
:103DB000FC01208131810217130709F063C55110FE
:103DC00063C51092C70580E00E94CC1762C5902F92
:103DD000812F9EC5F9014485558566857785C90182
:103DE0000E947006D60115968C9181FFC1C5C6014F
:103DF0000E94B4128091CF059091D0050817190741
:103E000009F0B6C51092D0051092CF05B1C59091BA
:103E10002D01892F8E7F90FF816080932D010E945C
:103E2000F412D1C580912D018E7FF7CF80912D01A5
:103E30008F7E013E110531F0053E1105E9F48091B8
:103E40002D018F7D80932D0180912D0180FF19C060
:103E5000D70115968C9108321105F0F40E31110539
:103E600008F06BC00430110548F5882351F010921A
:103E7000B6051092B50505C0C80190528115904352
:103E800018F7F801E851FC47E730F10508F0A5C53F
:103E9000EA52FC4C0C942D330933110558F40D32C1
:103EA000110518F40B32110501F79091AA0592FD46
:103EB000DCCF08C004361105C1F3D7CF9091AA0515
:103EC00094FDD3CF882309F4A6C08091CA019091B4
:103ED0006E05892B8D7FB1F11092B6051092B50554
:103EE0008091AA0581FD2EC0F80123E0F695E795A3
:103EF0002A95E1F7EE71FF27E159FA4F98012F70EB
:103F0000332781E090E002C0880F991F2A95E2F7DD
:103F100080959095208131818223932391838083A2
:103F200060E0C8010E94D3198091CA018D7F0E9470
:103F3000091282E00E94A60A4BCE9091AA0593FD39
:103F400094CFC0CF87E0F701A8E0B2E001900D92D6
:103F50008A95E1F710920B0210920A028091B50542
:103F60009091B60508171907D1F52091AA0525FFEC
:103F700036C030912D0131FF02C026FF30C02091A4
:103F8000B3053091B4055601A21AB30AB7010E94D5
:103F90002F0DA816B90618F580916E0581FF08C08F
:103FA00080912D01806180932D0182E00E94E309C0
:103FB00080916E0585FF08C080912D0180628093FD
:103FC0002D0180E20E94E30960912D0166956170E8
:103FD0008091B5059091B6050E94D319F9CD8091D5
:103FE000CA0190916E05982B20912D0191FB21F92A
:103FF00020932D018D7F0E9409121093B605009326
:10400000B505D092B405C092B30580912D018460AE
:1040100080932D018ECF970140E0B601C8010E9428
:10402000E319D6CD06E221EE41EE6AE17CE7C70155
:104030000E945519CDCD07E225EE45EE6BE17CE7F8
:10404000F6CF06E221EE40EE68E17CE7F0CF07E232
:1040500025EE44EE69E17CE7EACF06E221EE42EE8E
:104060006CE17CE7E4CF07E225EE46EE6DE17CE70C
:10407000DECF08E221E045EE6EE17CE7D8CF80910B
:10408000660581608093660595C0809167058860AC
:10409000809367058FC0809166058260F3CF809121
:1040A00066058460EFCF809166058860EBCF8091D4
:1040B00067058160EDCF809167058260E9CF8091CF
:1040C00066058061DFCF809166058062DBCF8091DD
:1040D00066058064D7CF0E941313809166058068BF
:1040E000D1CF809166058C60CDCF809167058360CC
:1040F000CFCF809166058E7FC5CF80916705877F82
:10410000C7CF809166058D7FBDCF809166058B7F7F
:10411000B9CF80916605877FB5CF809167058E7F87
:10412000B7CF809167058D7FB3CF809166058F7E75
:10413000A9CF809166058F7DA5CF809166058F7B85
:10414000A1CF0E941313809166058F779BCF80913A
:104150006605837F97CF809167058C7F99CF80918B
:10416000660582FB992790F921E0922790FB82F95E
:1041700090FB83F987CF80916705982F9095917078
:104180008E7F892B90FB81F983CF90916605892FD3
:104190008F7B96FF806476CF0E9413139091660503
:1041A000892F97FB87F980586DCF61E08EE090E012
:1041B0000E948E33609166057091670584E090E0FF
:1041C0000E94AC330E94131303CD60E0EFCF9091B7
:1041D0006605892F8F7E94FF806154CF909166058C
:1041E000892F8E7F90FF81604DCF90916705892F39
:1041F000877F93FF88604CCF0631FCE71F07B9F536
:1042000080916E05982F9A7A3091A90530FF04C0ED
:10421000482F447409F090E031FF04C0482F4171E9
:1042200009F090E032FF04C0482F487809F090E090
:1042300033FF03C0827209F090E0222371F081E025
:10424000911101C080E08093A00169E2911165E3C2
:1042500086E991E00E94FB0598CD8091A001811133
:1042600004C089E20E94EE0590CD85E3FBCF0737BD
:104270003CE7130709F46CC008374CE7140709F44E
:1042800072C0222381F003305CE7150709F48BC06C
:1042900008F06EC001159CE7190709F477C00130DA
:1042A0001C4709F486C0F7018581008111818823AC
:1042B00009F48DC0C8010E945F0CD82E682FC80178
:1042C0000E943F0AB8018D2D0E94420C0E94B30843
:1042D000D82E192F882ED7011596BC9015971696B3
:1042E000CC90C2949FE0C9228091BF01877009F1F0
:1042F000AB2CBB20F9F0812F807F803469F080E205
:104300008D0D8830B0F0812F807E803229F4B1E0AD
:10431000BD1578F4CC2069F08091670582FF09C053
:1043200082E00E94A60A8091BF018770AA24A3940C
:104330008111A12C912E92948FE09822EBE0E91547
:1043400008F4A2C0E92DF0E0E352FC4C0C942D33AC
:1043500081E0222351F00E94BD0A43E062E081E047
:104360000E94790A35CC82E0F4CF0E94990AF5CFF9
:104370000B35BCE71B0749F10C35ECE71E07D9F0FC
:104380000A351C4709F08FCF81E01CC00E9413132F
:104390002FEF34E34CE0215030404040E1F700C0C3
:1043A00000000E94D1056FEF7FEF90E080E00E9457
:1043B000AC330E946D178091670582FB882780F9D6
:1043C00091E089270E94BA0D6ECF80E0FBCFC80133
:1043D0000E940B0AD82E76CF012F0F70812F807F7D
:1043E00011F00295007FBB20A9F0002359F080E274
:1043F0008D0D883010F0811007C0802F0E94EA09CF
:104400000E9463128D2D3EC080912F06082B0093D1
:104410002F06F6CF8D2D0E94A2170023A9F180E26E
:104420008D0D883010F0811004C0802F0E94E309A8
:1044300003C0802F0E94DC090E94631225C0012F57
:104440000F70812F807F803211F00295007F8820CD
:1044500059F0F1E08F1609F499C0BB2009F4A5C00A
:10446000CC2009F449C0CECF8091670582FD40C0C1
:10447000BB20C1F1002329F0802F0E94EA090E948D
:10448000631280E00E944A18292D2850330B2430F3
:10449000310510F40E945F068D2D912F0E94CC0AE9
:1044A0008111C7C11092A2011092A101AA20A9F006
:1044B0008091BF0180FD11C0F70115828695869518
:1044C00086950E94BD0AC7010E94941C8091BF017D
:1044D0008695869586950E94990A60E0C7010E949C
:1044E000CD0C86CB80E00E94A217002369F29DCFFD
:1044F000BB2091F1C11004C0802F0E949B17C4CF34
:1045000021E0C21211C08090CA01802F88210817B3
:1045100009F4BACF0E9499109093C9018093C80101
:1045200008290093CA01B0CF8091AB05823008F40E
:10453000ABCFC812A9CF802F0E949B17802F0E945B
:104540001D128091BC01902F9823091709F49CCF6C
:10455000082B0093BC0198CFC1100AC0802F0E9485
:104560009417802F0E941D12802F0E94F7098CCF74
:104570008091AB05823008F487CF31E0C31284CF3D
:1045800080916E05802309F47FCFE8CF8091B1053B
:10459000BB2021F08C1508F477CFAECFC81608F0F9
:1045A00073CF802F0E9494176FCFCC20D1F349E3B3
:1045B000841237C18091AF059091B0050E946E0BB7
:1045C0008D2D0E94A21760CF812F869586958370CE
:1045D00069F0813009F058CF8D2D912F9370B11073
:1045E00002C080E090E00E9415064ECF8D2D912FE5
:1045F0009370B11002C080E090E00E943A0644CF70
:10460000812F837091F5B1103FCF4D2D4295469586
:104610004770440F440F8D2D8F70042E01C0880FFA
:104620000A94EAF72D2D2071D4FE07C02FE030E068
:1046300001C0220F4A95EAF72095312F369536951D
:104640003370323069F050F44091FB01313029F081
:10465000822B84230E94C90A17CF842B822BFACF86
:10466000282B8091FB018227F5CF8695BB2011F086
:10467000812F8170882309F407CF4D2D42954695EF
:104680004770440F440F8D2D8F70042E01C0880F8A
:104690000A94EAF72D2D2071D4FE07C02FE030E0F8
:1046A00001C0220F4A95EAF72095312F36953695AD
:1046B0003370323069F050F44091FC01313029F010
:1046C000822B84230E94760ADFCE842B822BFACFA2
:1046D000282B8091FC018227F5CF012F0F70BB2082
:1046E00029F0802F0E94BD0A8D2D07CF8D2D0E94AD
:1046F0009417802F0E94990AC7CE8D2D52EF8516F0
:10470000B1F1581570F090EF8916D1F0A1EF8A162B
:1047100091F0BB2009F480C0C11074CE812F8F713D
:104720002AC0B3EF8B1651F1E4EF8E12F2CF8091D5
:10473000670582FD2FC0812F8F71BB20D9F21BC06E
:104740008091B105BB2079F0C81608F09DCE212FCD
:104750002F7181E090E001C0880F2A95EAF79091CF
:10476000FC018927AFCF8C1508F48ECEF0CF812FB6
:104770008F71B110BFCF0E94BD0A86CE80E0BB20F2
:1047800009F4A0CF81E0912F9F7101C0880F9A9505
:10479000EAF798CF8091AB05823038F1BB20C9F0A1
:1047A0009091BF019770943041F40E94F009812FDD
:1047B0008F710E94990AA12C67CEC816E0F7012FCD
:1047C0000F71802F0E94BD0A63E0802F0E94321279
:1047D000F2CFC81630F00E94F00964E0812F8F718B
:1047E000F5CF81E00E94A60AE6CFBB2051F0012F51
:1047F0000F71802F0E94BD0A63E0802F0E94321249
:1048000043CE81E00E94A60AF1E0FC1508F03CCE00
:1048100082E00E94A60A38CECC2041F0893309F408
:10482000C9CE8091AD059091AE05C8CE812F8F7114
:1048300061CFBB2019F0C11035CE38CEC11032CEB9
:1048400020E0D7014C9111965C91119712966C91D2
:10485000129713967C91139714968C911497159632
:104860009C910E94A80C8091AC0583FF1BCE809187
:10487000A1019091A201029709F014CE8D2D0E9402
:10488000921810CE552029F0DC0118968C9185FFE6
:104890009ACAC80197558F3F910511F008F068C07A
:1048A000F801FF2734E0EE0FFF1F3A95E1F79F0173
:1048B000255A3B4F6901D70115968C91E05AFB4F61
:1048C000908180FB90F99083882309F483CA0E9429
:1048D00099109093070280930602F60182818F5F00
:1048E000828380912F0690916E05892B838380911E
:1048F000CA0184834681578166857785C6010E94F7
:104900007006D60115968C9181FF61CA90E080E017
:104910009093CF058093D0052BC080919E019091FC
:104920009F010817190781F410929F0110929E01B0
:104930001092C1051092C2051092C3051092C405D1
:104940001092C9051092C8058091CA059091CB05B7
:10495000009709F49ECFA8E08A16910408F028CAAF
:10496000642D0E94C706811103C081E00E94CC170C
:104970008091AA0580FF85CA0E9499106C01F701F9
:104980008581882309F452CA80912D0182FF08C0D5
:1049900028E032E040E0B60190E080E00E94E319B8
:1049A0000431FCE71F0709F43DCA05312CE7120763
:1049B00009F42DCA03313CE7130729F480912D0136
:1049C000816080932D01C80190528115904308F0B9
:1049D0003BCA1092B6051092B505F7012581222336
:1049E00009F40ACC1092CE05C8019057839708F0BD
:1049F00003CC84E090E00E94783390936705809325
:104A00006605F801E150F047E232F10508F037CBD6
:104A1000E751FC4C0C942D33A114B10409F07FC96B
:104A2000512CB12CA12C80E00E94CC17D092CB0548
:104A3000C092CA0581E08093C705D60115968C9176
:104A40008093C50551100EC0AB2861F0F60180813E
:104A500091819C0124503109213A310508F086C921
:104A60000E94EE05D6011696AD90BC90C5019A95B0
:104A700081159F4110F4E0EEBE2277247394C501A6
:104A800001978F339E4708F0712CD6011996ED914E
:104A9000FC911A97309731F01B966D917C9181E0D3
:104AA00009957822772079F0F601868197810E9416
:104AB000E70A8093C605C501F8E08F16910408F057
:104AC00058C90E9476060E9463125CC9B0E0A0E05B
:104AD000ECE6F5E20C9401338091BB01807F09F094
:104AE00054C08091BA01882309F44FC0E0912E068A
:104AF00087E0D82E8091F5058E1709F446C00E2F59
:104B000010E0ED9DF0011124EA50FA4F84818823D2
:104B100009F440C0D09EE001D19ED00D1124FE01C9
:104B2000EA50FA4F91818091B601981333C0908179
:104B30008091B50198132EC0858181112BC0E28030
:104B4000F3808091B7019091B801E81AF90A60E00A
:104B500085EB91E00E94CD0C65EB71E00E942F0D7A
:104B6000E816F906B8F48091BB018F7080618093DC
:104B7000BB01C450DA4F88818F708061888385EBD8
:104B800091E00E94941C0E94010ACDB7DEB7E7E0D5
:104B90000C941D33F8013196E770ACCFA4E1B0E07E
:104BA000E4EDF5E20C94F9328C0186E0F801DE01C7
:104BB0001F9601900D928A95E1F7D80114967C908A
:104BC00014971596EC9085EBA82E81E0B82E809175
:104BD000B90181112AC0711003C0FF24F3941CC0D5
:104BE000EE20F9F0C8010E949B0CF82E8823C9F032
:104BF00087E0F801A5EBB1E001900D928A95E1F70D
:104C00008091B901813031F48091B5019091B60164
:104C10000E948E0C0E9466258F2D6496EFE00C9406
:104C20001533C8010E94941CD8CFF80150806180D0
:104C3000C280D38060E085EB91E00E94CD0CF090C3
:104C4000BA018091B7019091B8014601881A990A7A
:104C500060E085EB91E0FF2009F4FDC00E94CD0CDF
:104C600065EB71E00E942F0D8816990608F0B6C01A
:104C7000772009F4B2CF8091BB01382F307F20918B
:104C8000B601D80111969C911197311167C0291373
:104C900015C02091B5019C91291310C0E11054C09A
:104CA0008F7080618093BB0185EB91E00E94941C22
:104CB0008091BB01F8018683F12CAECFE11044C096
:104CC000662D852D0E943C04E82E882381F080917A
:104CD000AC0580FFF1CF85EB91E00E94941C87E04A
:104CE000E5EBF1E0DF011D928A95E9F7E5CF5F86FC
:104CF000688A8F8598890E948E0C292F22952F70A3
:104D0000243058F49F70223088F0992399F0F801EC
:104D10009681907F79F4FE2C7FCF2A5F2F7022300E
:104D200068F0C8010E94941CEF2CF5CF992311F074
:104D3000882389F3805E883070F3F3CF803F58F387
:104D4000815F833070F7E7CF8091BB0181608093F2
:104D5000BB018091AC0581FDAFCFBDCF291315C03C
:104D60002091B5019C91291310C0E1100EC0169638
:104D70008C93C8010E94941C87E0F801A5EBB1E078
:104D800001900D928A95E1F747CFC8010E949B0CD4
:104D9000882309F446CFEE2009F443CF8091BB016C
:104DA000803288F02091B5013091B601398728878B
:104DB000DB86CA869091B9019C871D868E87CE01BD
:104DC00008960E94941C87E0F801A5EBB1E00190E1
:104DD0000D928A95E1F70E946625FFCE8091BB0176
:104DE000982F907F09F477CF772009F4F6CE2091A1
:104DF000B601F8019181291311C02091B50190816C
:104E000029130CC0E1100AC08683C8010E94941CBB
:104E100087E0D5011D928A95E9F7FECEC8010E9470
:104E20009B0C882309F4FDCEEE2009F4FACE809184
:104E3000BB01803240F22091B5013091B6013A8336
:104E40002983DC82CB829091B9019D831E828F835E
:104E5000CE010196B6CF0E94CD0C65EB71E00E94A9
:104E60002F0D8816990608F041C0772009F4B5CEB9
:104E7000FE2CEE2009F4D5CE9091B601F801818187
:104E8000981326C09091B5018081981321C080911C
:104E9000B7019091B801C81AD90AF8ECCF16D1041D
:104EA00008F06ACF9091BB0190FD66CF907F09F426
:104EB00063CF8091BB01D80116968C931697903FD3
:104EC00009F457CF982F907F905F8F70892B4FCF29
:104ED000C8010E949B0C811176CF8091BB0181603B
:104EE0008093BB01C8010E94941C96CE87E0F50117
:104EF00011928A95E9F790CEA6E0B0E0E2E8F7E2F9
:104F00000C9404330E9499108C018091CB019091F4
:104F1000CC018017910781F019821A820E949910A2
:104F2000682F49815A81792F80E090E00E94921A7F
:104F30001093CC010093CB012696E4E00C9420332F
:104F40001F921FB61F9211248F939F93AF93BF930D
:104F50008091D905811113C08091DA059091DB050C
:104F6000A091DC05B091DD054196A11DB11D809396
:104F7000DA059093DB05A093DC05B093DD05BF91C6
:104F8000AF919F918F911F901FBE1F901895CDB725
:104F9000DEB7EA970FB6F894DEBF0FBECDBF85B778
:104FA000806885BF85B7806885BF84B7877F84BFE9
:104FB0000FB6F894A8958091600088618093600096
:104FC000109260000FBE80E890E00FB6F8948093D6
:104FD0006100909361000FBE8FE897E09093950178
:104FE000809394010E946A070E94020E0E94F50CB1
:104FF0000E9472040E9413058091E20084608093F5
:10500000E20078948091EB058823A1F01091E900EB
:105010001F709091EC00892F817090FD80E8182B13
:105020001092E9008091E80083FD0E9429131F700F
:105030001093E90082E084BD93E095BD9AEF97BD9F
:1050400080936E001092ED011092EE011092EF012C
:105050001092F0010E94FA0B811102C00E94E21628
:1050600088EC90E01091E300111F1127111F61F4EB
:10507000AFE3BCE91197F1F700C00000019791F789
:105080000E9472041092EB051093D10581E08127F4
:105090008093D2058093190111110E948031809173
:1050A00019018091190194E0811190E09093FA0127
:1050B00084E0891B8093F90184E90E94910786E6C8
:1050C0000E94910787E90E94910786EC0E94910750
:1050D00006E711E0F80181918F018F3F11F00E94E6
:1050E0009107F1E00C371F07A9F788E0EDE3F4E042
:1050F000DF01282F1D922A95E9F7E1EFF1E0DF01AA
:105100001D928A95E9F790E080E00E947833863E10
:105110009E4F21F40E94FA0B811168C066EE7EEF6B
:1051200090E080E00E94AC3360E082E090E00E947A
:105130008E3381E08093FB0161E083E090E00E9488
:105140008E3360E074E184E090E00E94AC3360E074
:1051500086E090E00E948E336FEF87E090E00E943F
:105160008E3340E050E0BA0188E090E00E94A03326
:1051700060E084E290E00E948E3360E087E190E09E
:105180000E948E3360E08CE090E00E948E3360E0FD
:105190008DE090E00E948E3319821A821B821C825D
:1051A0001D821E821F82188648E050E068E170E090
:1051B000CE0101960E947E3340E050E0BA0180E2C9
:1051C00090E00E94A03380E00E94AB0B0E94E216A8
:1051D00040E050E0BA018FE090E00E94A03340E050
:1051E00050E0BA0183E190E00E94A03382E090E0B9
:1051F0000E9470338093FD0184E090E00E94783338
:1052000090936705809366050E94A510EFEFF6E77F
:1052100021E0E150F0402040E1F700C000000E9492
:10522000A51080913D0480FF08C06FEF7FEF90E0F4
:1052300080E00E94AC330E94D10583E090E00E94A0
:1052400070330E94C90A8091D1058111BAC082E0F1
:105250008093320480E880930F020E943A306BE022
:1052600070E08BE591E00E944D0D8823E9F180917B
:10527000320465E070E081FDA9C086E591E00E94FE
:105280004D0D882389F16DE070E084E491E00E9487
:105290004D0D882349F10E94E205605A75418F4FF8
:1052A0009F4F609368057093690580936A0590939A
:1052B0006B05E2E3F2E080E092E0DF019C011D92E9
:1052C00021503040E1F7F0931102E09310028FEF8C
:1052D0009FEF909335048093340481E080936D05B3
:1052E00080936C05109233048091D105811102C026
:1052F0000E9483318AE191E09093D6058093D50591
:105300008DE394E038E0380F38AF22242394312C19
:105310008091EB0500E4F02E00E112E1853009F404
:105320008FC00E94A510BEEFEB2EB1E0FB2E1DE357
:10533000C12E14E0D12E26E032E0D601F701919182
:105340008D912E173F0709F485C09817C1F38090FF
:10535000D10510E077247394D6010D916D01F7010A
:1053600091907F01901629F19026B12CAA24A39444
:10537000892D8A21B1F08820A1F0BAAA1BAB0E9426
:1053800099109DAB8CAB7EAA91E0802F8A2109F405
:1053900090E09FAB4AA95BA96CA97DA98EA90E9448
:1053A000921AB394AA0CF6E0BF12E2CFF70131973C
:1053B00000831F5F183081F60E94A807DD24D39474
:1053C0004EC083E08093320480E245CF81E591E0D6
:1053D00056CF8091EB05843029F10E94770D109211
:1053E000D90548E150E00FB6F894A89540936000C5
:1053F0000FBEF092600083B7817F846083BF83B764
:10540000816083BF7894889583B78E7F83BF0FB602
:10541000F894A89580916000886180936000109254
:1054200060000FBE8091EA05882351F00E94A5100C
:10543000EDE3F4E081918111D1C558AD5E13FACF4F
:105440008091EB05853009F4C4CF0E9413130E94AC
:105450005F0667CF98137BCF0E947C27D12C809169
:10546000D105882309F497C08091C8059091C9059A
:10547000892B09F43EC04091BD055091BE05609155
:10548000BF057091C0052FB7F8948091DA0590910F
:10549000DB05A091DC05B091DD052FBF841B950BCA
:1054A000A60BB70B4091B9055091BA056091BB05A9
:1054B0007091BC0584179507A607B707D0F08091B7
:1054C000C8059091C9050E94BB191092C905109298
:1054D000C8051092BD051092BE051092BF0510922E
:1054E000C0051092B9051092BA051092BB05109232
:1054F000BC050091CF051091D0050115110549F1AA
:1055000080910602909107020E948A107C01BE01E0
:10551000655D7F4F87E0DB011D928A95E9F7C80141
:105520000E942F0D8E159F05A0F48091CF059091BC
:10553000D0059927A4E0880F991FAA95E1F7FC01EF
:10554000E05AFB4F208122FD04C0855A9B4F0E94E8
:10555000CD128091AA0580FF1EC080912D0182FF8F
:105560001AC00E9499102091B3053091B405AC0186
:10557000421B530B20912B0130912C0142175307F2
:1055800050F028E032E041E0BC018091B5059091F7
:10559000B6050E94E31980916D05882309F465C062
:1055A00080913604909137040E948A10C29708F4C3
:1055B0003CC000913404109135040E9499109093DE
:1055C00037048093360482E392E090931102809333
:1055D00010028091D105811128C0A2E3B2E090E0D1
:1055E00080E0FC01EA59FE4F44912D914217A1F051
:1055F0009D0121503109F90140839C01F5E0369568
:105600002795FA95E1F7A10102C0440F551F2A958D
:10561000E2F79A01042B132B0196811552E09507AE
:1056200001F7109335040093340480913404909171
:105630003504892B09F067C080916C058823A9F097
:105640000E94E205009168051091690520916A05A4
:1056500030916B05601B710B820B930B6F3F7F4F7B
:105660008F4F9F4710F40E94770DD1100E94920D2A
:105670000E945F0690913804891721F080933804C6
:105680000E94E2058091EB05843009F041CE83E071
:105690008093E9008091E80082FF3ACE8091E80093
:1056A00090E085FF0CC00E94910440E2E42EF12CB2
:1056B0008E010F5F1F4F882309F403C191E0809191
:1056C000E8008B778093E800992309F421CE0091BC
:1056D00045041091460489810115110509F4FFC0A4
:1056E0008E3F09F086C18A81833020F08550833057
:1056F00008F07FC1EA81EE3008F07BC1F0E0E55FA1
:10570000FB4C0C942D3380913304811195CF0E9472
:10571000920D20913404309135042115310509F49E
:105720008BCF80E0082F10E07101082E02C0EE0C34
:10573000FF1C0A94E2F7A70142235323452B11F4DF
:105740008F5FF0CF9091320490FF98C0880F880F40
:10575000880F8093260110922901895F8093270189
:1057600083E080932A0124E630E047E050E064E2E1
:1057700071E088E70E94DA30892B09F05DCFA8013B
:1057800075E0440F551F7A95E1F78091320480FF50
:1057900087C0E2E1F2E080E2DF011D928A95E9F73D
:1057A000E0E8F1E0FAAFE9AF0CE711E067E0962E30
:1057B000A9ADBAAD2D91BAAFA9AFF80141908F0153
:1057C000440E552E511CC2018E5C9D4F2C01E22FC0
:1057D000F0E0EE5EFD4F30E020E0792C721AC22C32
:1057E000022E01C0CC0C0A94EAF7520190E0D501D8
:1057F0008D915D018C21672D691B6770862E062EA9
:10580000000C770BB82F01C0BB0F8A94EAF78B2EE0
:105810007195619571096770772701C086956A95C2
:10582000EAF7882A8081882A80829F5F9830F9F67B
:105830002F5F3F4F31962830310579F6E9ADFAAD4B
:10584000E458F14009F0B4CF04E610E020E230E083
:1058500042E152E060E488E70E94FB30892B09F0C6
:10586000EBCEE094F0948091340490913504E822DA
:10587000F922F0923504E0923404DECE8295880F4E
:105880008076809326019801369527953695279541
:1058900020932901815E8093270120932A0163CF01
:1058A0004E5C5D4F04E610E020E230E0D3CF809103
:1058B000F100D8018D938D01B1E0EB1AF10809F4E4
:1058C000FDCE8091E80085FDF2CF8091E8008B77D6
:1058D0008093E8000E949104882399F3EFCE8C30E6
:1058E00009F4D7C070F5843009F4BAC050F482309E
:1058F00009F46EC008F0A5C0813009F465C08FEFCF
:1059000092C3863009F4C2C008F4B5C08B30B9F731
:105910008091B7059091B805892B09F46AC040E2DF
:1059200050E0BE016F5F7F4F82E00E94180BFFEFD7
:1059300021EE34E0F15020403040E1F700C000009B
:105940007ACC803109F4D7C098F58E3009F4A8C01C
:1059500008F4A2C08091B7059091B805892B09F48D
:1059600048C0EC80F12C2DE1E216F10408F041C0B2
:10597000CA80DB80DC24CD24DC248E010F5F1F4F26
:10598000E00EF11EC60183599D4FE016F10689F124
:1059900033E9C31631E0D30628F4D80114966C918C
:1059A0000E948E330F5F1F4FBFEFCB1ADB0AEACF87
:1059B000823109F4A5C008F4A1C0833109F4CAC03A
:1059C0008E3F09F09CCF96CE1A8289E08B8311C05E
:1059D0008A81823009F446C38330A1F0813009F016
:1059E0008ECF0E94E2050E9433336B837C838D83CC
:1059F0009E8340E250E0BE016F5F7F4F82E00E94D5
:105A0000180B86CC8091B7059091B805892B89F346
:105A100080913D048B8380913E048C8380913F0470
:105A20008D83809140048E83809141048F83809187
:105A300042048887809143048987809144048A873F
:105A4000D8CF8A81823009F05ACF6B817C818D81D9
:105A50009E810E94333388E290E00E948E33C9CF4A
:105A60004C816B818A810E94130C98278927982783
:105A70009E838D83BECF2D813E81322723273227FF
:105A80004C816B818A810E94D40BB3CF0E946C162B
:105A9000B0CF80E18A83ADCF81E08A8383E996CF5E
:105AA000EC80F12CEDE1EE16F10408F0A2CFCA80F3
:105AB000DB80DC24CD24DC248E010F5F1F4FE00E41
:105AC000F11EC60183599D4F0E151F0509F491CF94
:105AD000F3E9CF16F1E0DF0658F40E947033D801E5
